{
  "_format": "hh-sol-artifact-1",
  "contractName": "Devcart",
  "sourceName": "contracts/Devcart.sol",
  "abi": [
    {
      "inputs": [],
      "stateMutability": "nonpayable",
      "type": "constructor"
    },
    {
      "anonymous": false,
      "inputs": [
        {
          "indexed": false,
          "internalType": "address",
          "name": "buyer",
          "type": "address"
        },
        {
          "indexed": false,
          "internalType": "uint256",
          "name": "orderCount",
          "type": "uint256"
        }
      ],
      "name": "Buy",
      "type": "event"
    },
    {
      "inputs": [
        {
          "internalType": "uint256",
          "name": "totalPrice",
          "type": "uint256"
        },
        {
          "components": [
            {
              "internalType": "string",
              "name": "name",
              "type": "string"
            },
            {
              "internalType": "uint256",
              "name": "price",
              "type": "uint256"
            },
            {
              "internalType": "uint256",
              "name": "count",
              "type": "uint256"
            }
          ],
          "internalType": "struct Devcart.Item[]",
          "name": "recievedCart",
          "type": "tuple[]"
        }
      ],
      "name": "buy",
      "outputs": [],
      "stateMutability": "payable",
      "type": "function"
    },
    {
      "inputs": [
        {
          "internalType": "uint256",
          "name": "",
          "type": "uint256"
        }
      ],
      "name": "order",
      "outputs": [
        {
          "internalType": "uint256",
          "name": "time",
          "type": "uint256"
        }
      ],
      "stateMutability": "view",
      "type": "function"
    },
    {
      "inputs": [
        {
          "internalType": "address",
          "name": "",
          "type": "address"
        }
      ],
      "name": "orderCount",
      "outputs": [
        {
          "internalType": "uint256",
          "name": "",
          "type": "uint256"
        }
      ],
      "stateMutability": "view",
      "type": "function"
    },
    {
      "inputs": [],
      "name": "owner",
      "outputs": [
        {
          "internalType": "address",
          "name": "",
          "type": "address"
        }
      ],
      "stateMutability": "view",
      "type": "function"
    },
    {
      "inputs": [
        {
          "internalType": "address",
          "name": "",
          "type": "address"
        },
        {
          "internalType": "uint256",
          "name": "",
          "type": "uint256"
        }
      ],
      "name": "totalOrders",
      "outputs": [
        {
          "internalType": "uint256",
          "name": "time",
          "type": "uint256"
        }
      ],
      "stateMutability": "view",
      "type": "function"
    },
    {
      "inputs": [],
      "name": "withdraw",
      "outputs": [],
      "stateMutability": "nonpayable",
      "type": "function"
    }
  ],
  "bytecode": "0x608060405234801561001057600080fd5b50336000806101000a81548173ffffffffffffffffffffffffffffffffffffffff021916908373ffffffffffffffffffffffffffffffffffffffff160217905550611034806100606000396000f3fe6080604052600436106100555760003560e01c806321603f431461005a57806328c84cc5146100975780633ccfd60b146100b3578063713d856b146100ca5780638da5cb5b14610107578063a0361e8614610132575b600080fd5b34801561006657600080fd5b50610081600480360381019061007c91906106a4565b61016f565b60405161008e91906106e0565b60405180910390f35b6100b160048036038101906100ac91906109b1565b61019d565b005b3480156100bf57600080fd5b506100c86103ec565b005b3480156100d657600080fd5b506100f160048036038101906100ec9190610a6b565b6104de565b6040516100fe91906106e0565b60405180910390f35b34801561011357600080fd5b5061011c6104f6565b6040516101299190610aa7565b60405180910390f35b34801561013e57600080fd5b5061015960048036038101906101549190610ac2565b61051a565b60405161016691906106e0565b60405180910390f35b6001818154811061017f57600080fd5b90600052602060002090600202016000915090508060000154905081565b813410156101aa57600080fd5b600360003373ffffffffffffffffffffffffffffffffffffffff1673ffffffffffffffffffffffffffffffffffffffff16815260200190815260200160002060008154809291906101fa90610b31565b919050555060006001808160018154018082558091505003906000526020600020906002020190504281600001819055506000600190505b82518110156102ba5782818151811061024e5761024d610b79565b5b602002602001015182600101828154811061026c5761026b610b79565b5b9060005260206000209060030201600082015181600001908161028f9190610dbf565b50602082015181600101556040820151816002015590505080806102b290610b31565b915050610232565b5080600260003373ffffffffffffffffffffffffffffffffffffffff1673ffffffffffffffffffffffffffffffffffffffff1681526020019081526020016000206000600360003373ffffffffffffffffffffffffffffffffffffffff1673ffffffffffffffffffffffffffffffffffffffff16815260200190815260200160002054815260200190815260200160002060008201548160000155600182018160010190805461036b929190610545565b509050507fe3d4187f6ca4248660cc0ac8b8056515bac4a8132be2eca31d6d0cc170722a7e33600360003373ffffffffffffffffffffffffffffffffffffffff1673ffffffffffffffffffffffffffffffffffffffff168152602001908152602001600020546040516103df929190610e91565b60405180910390a1505050565b60008054906101000a900473ffffffffffffffffffffffffffffffffffffffff1673ffffffffffffffffffffffffffffffffffffffff163373ffffffffffffffffffffffffffffffffffffffff161461044457600080fd5b60008060009054906101000a900473ffffffffffffffffffffffffffffffffffffffff1673ffffffffffffffffffffffffffffffffffffffff164760405161048b90610eeb565b60006040518083038185875af1925050503d80600081146104c8576040519150601f19603f3d011682016040523d82523d6000602084013e6104cd565b606091505b50509050806104db57600080fd5b50565b60036020528060005260406000206000915090505481565b60008054906101000a900473ffffffffffffffffffffffffffffffffffffffff1681565b6002602052816000526040600020602052806000526040600020600091509150508060000154905081565b8280548282559060005260206000209060030281019282156105b55760005260206000209160030282015b828111156105b45782826000820181600001908161058e9190610f16565b506001820154816001015560028201548160020155505091600301919060030190610570565b5b5090506105c291906105c6565b5090565b5b808211156105f957600080820160006105e091906105fd565b60018201600090556002820160009055506003016105c7565b5090565b50805461060990610be2565b6000825580601f1061061b575061063a565b601f016020900490600052602060002090810190610639919061063d565b5b50565b5b8082111561065657600081600090555060010161063e565b5090565b6000604051905090565b600080fd5b600080fd5b6000819050919050565b6106818161066e565b811461068c57600080fd5b50565b60008135905061069e81610678565b92915050565b6000602082840312156106ba576106b9610664565b5b60006106c88482850161068f565b91505092915050565b6106da8161066e565b82525050565b60006020820190506106f560008301846106d1565b92915050565b600080fd5b6000601f19601f8301169050919050565b7f4e487b7100000000000000000000000000000000000000000000000000000000600052604160045260246000fd5b61074982610700565b810181811067ffffffffffffffff8211171561076857610767610711565b5b80604052505050565b600061077b61065a565b90506107878282610740565b919050565b600067ffffffffffffffff8211156107a7576107a6610711565b5b602082029050602081019050919050565b600080fd5b600080fd5b600080fd5b600080fd5b600067ffffffffffffffff8211156107e7576107e6610711565b5b6107f082610700565b9050602081019050919050565b82818337600083830152505050565b600061081f61081a846107cc565b610771565b90508281526020810184848401111561083b5761083a6107c7565b5b6108468482856107fd565b509392505050565b600082601f830112610863576108626106fb565b5b813561087384826020860161080c565b91505092915050565b600060608284031215610892576108916107bd565b5b61089c6060610771565b9050600082013567ffffffffffffffff8111156108bc576108bb6107c2565b5b6108c88482850161084e565b60008301525060206108dc8482850161068f565b60208301525060406108f08482850161068f565b60408301525092915050565b600061090f61090a8461078c565b610771565b90508083825260208201905060208402830185811115610932576109316107b8565b5b835b8181101561097957803567ffffffffffffffff811115610957576109566106fb565b5b808601610964898261087c565b85526020850194505050602081019050610934565b5050509392505050565b600082601f830112610998576109976106fb565b5b81356109a88482602086016108fc565b91505092915050565b600080604083850312156109c8576109c7610664565b5b60006109d68582860161068f565b925050602083013567ffffffffffffffff8111156109f7576109f6610669565b5b610a0385828601610983565b9150509250929050565b600073ffffffffffffffffffffffffffffffffffffffff82169050919050565b6000610a3882610a0d565b9050919050565b610a4881610a2d565b8114610a5357600080fd5b50565b600081359050610a6581610a3f565b92915050565b600060208284031215610a8157610a80610664565b5b6000610a8f84828501610a56565b91505092915050565b610aa181610a2d565b82525050565b6000602082019050610abc6000830184610a98565b92915050565b60008060408385031215610ad957610ad8610664565b5b6000610ae785828601610a56565b9250506020610af88582860161068f565b9150509250929050565b7f4e487b7100000000000000000000000000000000000000000000000000000000600052601160045260246000fd5b6000610b3c8261066e565b91507fffffffffffffffffffffffffffffffffffffffffffffffffffffffffffffffff8203610b6e57610b6d610b02565b5b600182019050919050565b7f4e487b7100000000000000000000000000000000000000000000000000000000600052603260045260246000fd5b600081519050919050565b7f4e487b7100000000000000000000000000000000000000000000000000000000600052602260045260246000fd5b60006002820490506001821680610bfa57607f821691505b602082108103610c0d57610c0c610bb3565b5b50919050565b60008190508160005260206000209050919050565b60006020601f8301049050919050565b600082821b905092915050565b600060088302610c757fffffffffffffffffffffffffffffffffffffffffffffffffffffffffffffffff82610c38565b610c7f8683610c38565b95508019841693508086168417925050509392505050565b6000819050919050565b6000610cbc610cb7610cb28461066e565b610c97565b61066e565b9050919050565b6000819050919050565b610cd683610ca1565b610cea610ce282610cc3565b848454610c45565b825550505050565b600090565b610cff610cf2565b610d0a818484610ccd565b505050565b5b81811015610d2e57610d23600082610cf7565b600181019050610d10565b5050565b601f821115610d7357610d4481610c13565b610d4d84610c28565b81016020851015610d5c578190505b610d70610d6885610c28565b830182610d0f565b50505b505050565b600082821c905092915050565b6000610d9660001984600802610d78565b1980831691505092915050565b6000610daf8383610d85565b9150826002028217905092915050565b610dc882610ba8565b67ffffffffffffffff811115610de157610de0610711565b5b610deb8254610be2565b610df6828285610d32565b600060209050601f831160018114610e295760008415610e17578287015190505b610e218582610da3565b865550610e89565b601f198416610e3786610c13565b60005b82811015610e5f57848901518255600182019150602085019450602081019050610e3a565b86831015610e7c5784890151610e78601f891682610d85565b8355505b6001600288020188555050505b505050505050565b6000604082019050610ea66000830185610a98565b610eb360208301846106d1565b9392505050565b600081905092915050565b50565b6000610ed5600083610eba565b9150610ee082610ec5565b600082019050919050565b6000610ef682610ec8565b9150819050919050565b600081549050610f0f81610be2565b9050919050565b818103610f24575050610ffc565b610f2d82610f00565b67ffffffffffffffff811115610f4657610f45610711565b5b610f508254610be2565b610f5b828285610d32565b6000601f831160018114610f8a5760008415610f78578287015490505b610f828582610da3565b865550610ff5565b601f198416610f9887610c13565b9650610fa386610c13565b60005b82811015610fcb57848901548255600182019150600185019450602081019050610fa6565b86831015610fe85784890154610fe4601f891682610d85565b8355505b6001600288020188555050505b5050505050505b56fea26469706673582212208a102f04b1dd6adafdc657b4c665659e08fca7644f8c955d0c04ea5185070fc164736f6c63430008110033",
  "linkReferences": {},
  "deployedLinkReferences": {}
}