{
  "_format": "hh-sol-artifact-1",
  "contractName": "Devcart",
  "sourceName": "contracts/Devcart.sol",
  "abi": [
    {
      "inputs": [],
      "stateMutability": "nonpayable",
      "type": "constructor"
    },
    {
      "anonymous": false,
      "inputs": [
        {
          "indexed": true,
          "internalType": "address",
          "name": "buyer",
          "type": "address"
        },
        {
          "indexed": true,
          "internalType": "uint256",
          "name": "orderCount",
          "type": "uint256"
        },
        {
          "indexed": true,
          "internalType": "uint256",
          "name": "timestamp",
          "type": "uint256"
        }
      ],
      "name": "Buy",
      "type": "event"
    },
    {
      "inputs": [
        {
          "internalType": "string",
          "name": "CID",
          "type": "string"
        }
      ],
      "name": "buy",
      "outputs": [],
      "stateMutability": "payable",
      "type": "function"
    },
    {
      "inputs": [
        {
          "internalType": "address",
          "name": "userAddress",
          "type": "address"
        }
      ],
      "name": "getCIDs",
      "outputs": [
        {
          "internalType": "string[]",
          "name": "",
          "type": "string[]"
        }
      ],
      "stateMutability": "view",
      "type": "function"
    },
    {
      "inputs": [
        {
          "internalType": "address",
          "name": "",
          "type": "address"
        }
      ],
      "name": "orderCount",
      "outputs": [
        {
          "internalType": "uint256",
          "name": "",
          "type": "uint256"
        }
      ],
      "stateMutability": "view",
      "type": "function"
    },
    {
      "inputs": [],
      "name": "owner",
      "outputs": [
        {
          "internalType": "address",
          "name": "",
          "type": "address"
        }
      ],
      "stateMutability": "view",
      "type": "function"
    },
    {
      "inputs": [
        {
          "internalType": "address",
          "name": "",
          "type": "address"
        },
        {
          "internalType": "uint256",
          "name": "",
          "type": "uint256"
        }
      ],
      "name": "storageCID",
      "outputs": [
        {
          "internalType": "string",
          "name": "",
          "type": "string"
        }
      ],
      "stateMutability": "view",
      "type": "function"
    },
    {
      "inputs": [],
      "name": "withdraw",
      "outputs": [],
      "stateMutability": "nonpayable",
      "type": "function"
    }
  ],
  "bytecode": "0x608060405234801561001057600080fd5b50336000806101000a81548173ffffffffffffffffffffffffffffffffffffffff021916908373ffffffffffffffffffffffffffffffffffffffff160217905550611088806100606000396000f3fe6080604052600436106100555760003560e01c80633ccfd60b1461005a578063492cc769146100715780636367da9c1461008d578063713d856b146100ca5780638da5cb5b14610107578063be2a32f614610132575b600080fd5b34801561006657600080fd5b5061006f61016f565b005b61008b60048036038101906100869190610727565b610310565b005b34801561009957600080fd5b506100b460048036038101906100af91906107d2565b6104ab565b6040516100c19190610951565b60405180910390f35b3480156100d657600080fd5b506100f160048036038101906100ec91906107d2565b6105c3565b6040516100fe919061098c565b60405180910390f35b34801561011357600080fd5b5061011c6105db565b60405161012991906109b6565b60405180910390f35b34801561013e57600080fd5b50610159600480360381019061015491906109fd565b6105ff565b6040516101669190610a87565b60405180910390f35b60008054906101000a900473ffffffffffffffffffffffffffffffffffffffff1673ffffffffffffffffffffffffffffffffffffffff163373ffffffffffffffffffffffffffffffffffffffff16146101fd576040517f08c379a00000000000000000000000000000000000000000000000000000000081526004016101f490610b1b565b60405180910390fd5b60004711610240576040517f08c379a000000000000000000000000000000000000000000000000000000000815260040161023790610b87565b60405180910390fd5b60008060009054906101000a900473ffffffffffffffffffffffffffffffffffffffff1673ffffffffffffffffffffffffffffffffffffffff164760405161028790610bd8565b60006040518083038185875af1925050503d80600081146102c4576040519150601f19603f3d011682016040523d82523d6000602084013e6102c9565b606091505b505090508061030d576040517f08c379a000000000000000000000000000000000000000000000000000000000815260040161030490610c39565b60405180910390fd5b50565b60003411610353576040517f08c379a000000000000000000000000000000000000000000000000000000000815260040161034a90610ca5565b60405180910390fd5b600260003373ffffffffffffffffffffffffffffffffffffffff1673ffffffffffffffffffffffffffffffffffffffff16815260200190815260200160002060008154809291906103a390610cf4565b9190505550600160003373ffffffffffffffffffffffffffffffffffffffff1673ffffffffffffffffffffffffffffffffffffffff168152602001908152602001600020828290918060018154018082558091505060019003906000526020600020016000909192909192909192909192509182610422929190610f82565b5042600260003373ffffffffffffffffffffffffffffffffffffffff1673ffffffffffffffffffffffffffffffffffffffff168152602001908152602001600020543373ffffffffffffffffffffffffffffffffffffffff167f1cbc5ab135991bd2b6a4b034a04aa2aa086dac1371cb9b16b8b5e2ed6b036bed60405160405180910390a45050565b6060600160008373ffffffffffffffffffffffffffffffffffffffff1673ffffffffffffffffffffffffffffffffffffffff168152602001908152602001600020805480602002602001604051908101604052809291908181526020016000905b828210156105b857838290600052602060002001805461052b90610da5565b80601f016020809104026020016040519081016040528092919081815260200182805461055790610da5565b80156105a45780601f10610579576101008083540402835291602001916105a4565b820191906000526020600020905b81548152906001019060200180831161058757829003601f168201915b50505050508152602001906001019061050c565b505050509050919050565b60026020528060005260406000206000915090505481565b60008054906101000a900473ffffffffffffffffffffffffffffffffffffffff1681565b6001602052816000526040600020818154811061061b57600080fd5b9060005260206000200160009150915050805461063790610da5565b80601f016020809104026020016040519081016040528092919081815260200182805461066390610da5565b80156106b05780601f10610685576101008083540402835291602001916106b0565b820191906000526020600020905b81548152906001019060200180831161069357829003601f168201915b505050505081565b600080fd5b600080fd5b600080fd5b600080fd5b600080fd5b60008083601f8401126106e7576106e66106c2565b5b8235905067ffffffffffffffff811115610704576107036106c7565b5b6020830191508360018202830111156107205761071f6106cc565b5b9250929050565b6000806020838503121561073e5761073d6106b8565b5b600083013567ffffffffffffffff81111561075c5761075b6106bd565b5b610768858286016106d1565b92509250509250929050565b600073ffffffffffffffffffffffffffffffffffffffff82169050919050565b600061079f82610774565b9050919050565b6107af81610794565b81146107ba57600080fd5b50565b6000813590506107cc816107a6565b92915050565b6000602082840312156107e8576107e76106b8565b5b60006107f6848285016107bd565b91505092915050565b600081519050919050565b600082825260208201905092915050565b6000819050602082019050919050565b600081519050919050565b600082825260208201905092915050565b60005b8381101561086557808201518184015260208101905061084a565b60008484015250505050565b6000601f19601f8301169050919050565b600061088d8261082b565b6108978185610836565b93506108a7818560208601610847565b6108b081610871565b840191505092915050565b60006108c78383610882565b905092915050565b6000602082019050919050565b60006108e7826107ff565b6108f1818561080a565b9350836020820285016109038561081b565b8060005b8581101561093f578484038952815161092085826108bb565b945061092b836108cf565b925060208a01995050600181019050610907565b50829750879550505050505092915050565b6000602082019050818103600083015261096b81846108dc565b905092915050565b6000819050919050565b61098681610973565b82525050565b60006020820190506109a1600083018461097d565b92915050565b6109b081610794565b82525050565b60006020820190506109cb60008301846109a7565b92915050565b6109da81610973565b81146109e557600080fd5b50565b6000813590506109f7816109d1565b92915050565b60008060408385031215610a1457610a136106b8565b5b6000610a22858286016107bd565b9250506020610a33858286016109e8565b9150509250929050565b600082825260208201905092915050565b6000610a598261082b565b610a638185610a3d565b9350610a73818560208601610847565b610a7c81610871565b840191505092915050565b60006020820190508181036000830152610aa18184610a4e565b905092915050565b7f4f6e6c7920746865206f776e65722063616e2063616c6c20746869732066756e60008201527f6374696f6e000000000000000000000000000000000000000000000000000000602082015250565b6000610b05602583610a3d565b9150610b1082610aa9565b604082019050919050565b60006020820190508181036000830152610b3481610af8565b9050919050565b7f436f6e74726163742062616c616e636520697320656d70747900000000000000600082015250565b6000610b71601983610a3d565b9150610b7c82610b3b565b602082019050919050565b60006020820190508181036000830152610ba081610b64565b9050919050565b600081905092915050565b50565b6000610bc2600083610ba7565b9150610bcd82610bb2565b600082019050919050565b6000610be382610bb5565b9150819050919050565b7f5769746864726177616c206661696c6564000000000000000000000000000000600082015250565b6000610c23601183610a3d565b9150610c2e82610bed565b602082019050919050565b60006020820190508181036000830152610c5281610c16565b9050919050565b7f56616c75652063616e6e6f742062652030000000000000000000000000000000600082015250565b6000610c8f601183610a3d565b9150610c9a82610c59565b602082019050919050565b60006020820190508181036000830152610cbe81610c82565b9050919050565b7f4e487b7100000000000000000000000000000000000000000000000000000000600052601160045260246000fd5b6000610cff82610973565b91507fffffffffffffffffffffffffffffffffffffffffffffffffffffffffffffffff8203610d3157610d30610cc5565b5b600182019050919050565b600082905092915050565b7f4e487b7100000000000000000000000000000000000000000000000000000000600052604160045260246000fd5b7f4e487b7100000000000000000000000000000000000000000000000000000000600052602260045260246000fd5b60006002820490506001821680610dbd57607f821691505b602082108103610dd057610dcf610d76565b5b50919050565b60008190508160005260206000209050919050565b60006020601f8301049050919050565b600082821b905092915050565b600060088302610e387fffffffffffffffffffffffffffffffffffffffffffffffffffffffffffffffff82610dfb565b610e428683610dfb565b95508019841693508086168417925050509392505050565b6000819050919050565b6000610e7f610e7a610e7584610973565b610e5a565b610973565b9050919050565b6000819050919050565b610e9983610e64565b610ead610ea582610e86565b848454610e08565b825550505050565b600090565b610ec2610eb5565b610ecd818484610e90565b505050565b5b81811015610ef157610ee6600082610eba565b600181019050610ed3565b5050565b601f821115610f3657610f0781610dd6565b610f1084610deb565b81016020851015610f1f578190505b610f33610f2b85610deb565b830182610ed2565b50505b505050565b600082821c905092915050565b6000610f5960001984600802610f3b565b1980831691505092915050565b6000610f728383610f48565b9150826002028217905092915050565b610f8c8383610d3c565b67ffffffffffffffff811115610fa557610fa4610d47565b5b610faf8254610da5565b610fba828285610ef5565b6000601f831160018114610fe95760008415610fd7578287013590505b610fe18582610f66565b865550611049565b601f198416610ff786610dd6565b60005b8281101561101f57848901358255600182019150602085019450602081019050610ffa565b8683101561103c5784890135611038601f891682610f48565b8355505b6001600288020188555050505b5050505050505056fea2646970667358221220bc12dcbfd4dd957001b26bfccf506febb19a2f62dfc5e40ea3de125579c0ea3664736f6c63430008110033",
  "linkReferences": {},
  "deployedLinkReferences": {}
}